:020000020000FC
:0200000091C2AB
:1000AC0057656C636F6D65212C3057656C636F6D94
:1000BC006520746F206469636500526F6C6C696EA7
:1000CC00672E2E2E00005072657373203220746FD1
:1000DC0020726F6C6C0056616C75653A2000536829
:1000EC006F7720737461743A20004D6F6E69746F72
:1000FC00723A2000436C656172696E672E2E0000A7
:10010C008591803011F00ED0FBCF089581BB5F9AA2
:10011C0033D05F9808955E98F9DF8295F7DF8DE212
:10012C0038D008955E9AF2DF8295F0DF8DE231D0FF
:10013C00089584E13ED05E9880E3E8DF8AE039D010
:10014C0080E3E4DF8AE035D080E3E0DF8AE031D081
:10015C0080E2DCDF8DE21DD088E2DDDF8EE0DBDFCC
:10016C0081E0D9DF82E025D086E0D5DF089581E0FB
:10017C00D2DF89E11ED008950000000000000000CD
:10018C000000000000000000000000000000000063
:10019C0008950000000000000000000000000000B6
:1001AC00000000000000000000008A95803089F7F4
:1001BC000895282F8AEFEDDF8AEFEBDF8AEFE9DF76
:1001CC008AEFE7DF2A952030A9F708958AEFF1DF4F
:1001DC008AEFEFDF8AEFEDDF8AEFEBDF0895313442
:1001EC00372A323538303336392307D0F1E0EAEE8E
:1001FC00E80F80E0F81F8491089520E0322F330F30
:10020C00330F330F330F35B92F9385E0D2DF2F9196
:10021C00669904C023952C3089F72FE0822F08951E
:10022C0006E000000000E1DF823311F052D10895A6
:10023C000A95B1F3F6CF9BDFF0E0E2ED61DFD5DF9D
:10024C00823339F08333E9F08833F1F08933F9F0F4
:10025C00F6CF8DDF86E4ADDFF0E0E6EC51DF86E42F
:10026C00A8DFDEDF84DF86E4A4DF802F00E3800FCD
:10027C008F93F0E0E2EE44DF8F91882F53DFA6DFFF
:10028C00DACF6AD0A3DFD7CFE1D0A0DFD4CF01D1B2
:10029C009DDFD1CF436C656172696E672E2E2E0087
:1002AC00546F74616C3A200023203127733A20007C
:1002BC0023203227733A200023203327733A20005F
:1002CC0023203427733A200023203527733A20004B
:1002DC0023203627733A20000FD108953031323362
:1002EC00343536373839414243444546F2E0E8EE7E
:1002FC00582E82958F70E80F6624F61D849112DFBC
:10030C00852D8F70E8EEF2E0E80F6624F61D8491DF
:10031C0009DF0895482F483C20F082E303DF485C56
:10032C0008C0443620F081E3FDDE445602C080E371
:10033C00F9DE01E01AE08894411718F00395165F76
:10034C00FACF1A50411B4F930A95802F805DEADE3D
:10035C008F91805DE7DE08950ADF38DFF2E0ECEA8A
:10036C00CFDE80E0C2D08F93C1DF88E2DBDE8F91DD
:10037C00D1DF89E2D7DE2ADFFADE89E11ADFF2E08B
:10038C00E4EBBEDE81E0B1D08F93B0DF88E2CADE51
:10039C008F91C0DF89E2C6DE19DFE9DE89E109DF72
:1003AC00F2E0ECEBADDE82E0A0D08F939FDF88E231
:1003BC00B9DE8F91AFDF89E2B5DE08DFD8DE89E1E7
:1003CC00F8DEF2E0E4EC9CDE83E08FD08F938EDFDE
:1003DC0088E2A8DE8F919EDF89E2A4DEF7DEC7DE1D
:1003EC0089E1E7DEF2E0ECEC8BDE84E07ED08F93EB
:1003FC007DDF88E297DE8F918DDF89E293DEE6DE8A
:10040C00B6DE89E1D6DEF2E0E4ED7ADE85E06DD091
:10041C008F936CDF88E286DE8F917CDF89E282DE4F
:10042C00D5DEA5DE89E1C5DEF2E0ECED69DE86E025
:10043C005CD08F935BDF88E275DE8F916BDF89E296
:10044C0071DEC4DE94DE89E1B4DE089590DEF2E064
:10045C00E0EA56DEBBDE50D0B9DE08954D6F6E6912
:10046C00746F72000895C9DE833049F08B3039F017
:10047C008F3011F4382EF7CF8315A9F3382E089549
:10048C008EE350DE8B2F32DF8A2F30DF8AE34ADE99
:10049C0008956DDEF4E0E8E633DE98DEB0E0A0E02F
:1004AC0066DEEEDF8D918F9321DF88E23BDE8F914C
:1004BC0031DF89E237DED7DF833051F08B3029F022
:1004CC0095DE8053B82FAA27EBCF88EC72DEE8CFED
:1004DC000895A0E0B1E01C9113951C93A00F80E04F
:1004EC00B81F1C9113951C930895B1E0A0E0A80FC0
:1004FC0080E0B81F8C91089500E0009300010093F8
:10050C000101009302010093030100930401009385
:10051C0005010093060108950FEF0DBF0AE00EBF11
:10052C000E949C020E949F00E7DF09C00FEF04B9F4
:10053C0000BB00E00DB90FEF0AB976980895F0E012
:10054C00E6EBDEDD43DE13DE41DEF0E0E2EDD8DD8E
:02055C0076DE49
:00000001FF
